{
  "_format": "hh-sol-artifact-1",
  "contractName": "WhisprRegistry",
  "sourceName": "contracts/WhisprRegistry.sol",
  "abi": [
    {
      "anonymous": false,
      "inputs": [
        {
          "indexed": true,
          "internalType": "address",
          "name": "userAddress",
          "type": "address"
        }
      ],
      "name": "UserDeleted",
      "type": "event"
    },
    {
      "anonymous": false,
      "inputs": [
        {
          "indexed": true,
          "internalType": "address",
          "name": "userAddress",
          "type": "address"
        },
        {
          "indexed": false,
          "internalType": "string",
          "name": "ensName",
          "type": "string"
        },
        {
          "indexed": false,
          "internalType": "string",
          "name": "avatarHash",
          "type": "string"
        }
      ],
      "name": "UserRegistered",
      "type": "event"
    },
    {
      "inputs": [
        {
          "internalType": "uint256",
          "name": "",
          "type": "uint256"
        }
      ],
      "name": "allUsers",
      "outputs": [
        {
          "internalType": "address",
          "name": "",
          "type": "address"
        }
      ],
      "stateMutability": "view",
      "type": "function"
    },
    {
      "inputs": [
        {
          "internalType": "address",
          "name": "userAddress",
          "type": "address"
        }
      ],
      "name": "deleteOtherUser",
      "outputs": [],
      "stateMutability": "nonpayable",
      "type": "function"
    },
    {
      "inputs": [],
      "name": "deleteUser",
      "outputs": [],
      "stateMutability": "nonpayable",
      "type": "function"
    },
    {
      "inputs": [],
      "name": "getAllUsers",
      "outputs": [
        {
          "internalType": "address[]",
          "name": "",
          "type": "address[]"
        }
      ],
      "stateMutability": "view",
      "type": "function"
    },
    {
      "inputs": [],
      "name": "getUserCount",
      "outputs": [
        {
          "internalType": "uint256",
          "name": "",
          "type": "uint256"
        }
      ],
      "stateMutability": "view",
      "type": "function"
    },
    {
      "inputs": [
        {
          "internalType": "address",
          "name": "userAddress",
          "type": "address"
        }
      ],
      "name": "getUserDetails",
      "outputs": [
        {
          "internalType": "string",
          "name": "ensName",
          "type": "string"
        },
        {
          "internalType": "string",
          "name": "avatarHash",
          "type": "string"
        },
        {
          "internalType": "bool",
          "name": "registered",
          "type": "bool"
        }
      ],
      "stateMutability": "view",
      "type": "function"
    },
    {
      "inputs": [
        {
          "internalType": "address",
          "name": "userAddress",
          "type": "address"
        }
      ],
      "name": "isUserRegistered",
      "outputs": [
        {
          "internalType": "bool",
          "name": "",
          "type": "bool"
        }
      ],
      "stateMutability": "view",
      "type": "function"
    },
    {
      "inputs": [
        {
          "internalType": "string",
          "name": "ensName",
          "type": "string"
        },
        {
          "internalType": "string",
          "name": "avatarHash",
          "type": "string"
        }
      ],
      "name": "registerUser",
      "outputs": [],
      "stateMutability": "nonpayable",
      "type": "function"
    },
    {
      "inputs": [
        {
          "internalType": "address",
          "name": "",
          "type": "address"
        }
      ],
      "name": "users",
      "outputs": [
        {
          "internalType": "string",
          "name": "ensName",
          "type": "string"
        },
        {
          "internalType": "string",
          "name": "avatarHash",
          "type": "string"
        },
        {
          "internalType": "bool",
          "name": "registered",
          "type": "bool"
        }
      ],
      "stateMutability": "view",
      "type": "function"
    }
  ],
  "bytecode": "0x608060405234801561001057600080fd5b506119a4806100206000396000f3fe608060405234801561001057600080fd5b50600436106100935760003560e01c8063a87430ba11610066578063a87430ba1461011e578063b5cb15f714610150578063cc3d967b1461016e578063e2842d79146101a0578063f6cb9632146101be57610093565b8063026ff05e14610098578063163f7522146100a25780631d2e4afd146100d2578063a2bdedf4146100ee575b600080fd5b6100a06101da565b005b6100bc60048036038101906100b79190610f90565b61054e565b6040516100c99190610fd8565b60405180910390f35b6100ec60048036038101906100e79190611139565b6105a6565b005b610108600480360381019061010391906111e7565b6107db565b6040516101159190611223565b60405180910390f35b61013860048036038101906101339190610f90565b61081a565b604051610147939291906112bd565b60405180910390f35b610158610961565b6040516101659190611311565b60405180910390f35b61018860048036038101906101839190610f90565b61096e565b604051610197939291906112bd565b60405180910390f35b6101a8610b1b565b6040516101b591906113ea565b60405180910390f35b6101d860048036038101906101d39190610f90565b610ba9565b005b6000803373ffffffffffffffffffffffffffffffffffffffff1673ffffffffffffffffffffffffffffffffffffffff16815260200190815260200160002060020160009054906101000a900460ff16610268576040517f08c379a000000000000000000000000000000000000000000000000000000000815260040161025f90611458565b60405180910390fd5b60008060003373ffffffffffffffffffffffffffffffffffffffff1673ffffffffffffffffffffffffffffffffffffffff16815260200190815260200160002060020160006101000a81548160ff021916908315150217905550604051806020016040528060008152506000803373ffffffffffffffffffffffffffffffffffffffff1673ffffffffffffffffffffffffffffffffffffffff168152602001908152602001600020600001908161031f9190611684565b50604051806020016040528060008152506000803373ffffffffffffffffffffffffffffffffffffffff1673ffffffffffffffffffffffffffffffffffffffff168152602001908152602001600020600101908161037d9190611684565b5060005b600180549050811015610508573373ffffffffffffffffffffffffffffffffffffffff16600182815481106103b9576103b8611756565b5b9060005260206000200160009054906101000a900473ffffffffffffffffffffffffffffffffffffffff1673ffffffffffffffffffffffffffffffffffffffff16036104f557600180808054905061041191906117b4565b8154811061042257610421611756565b5b9060005260206000200160009054906101000a900473ffffffffffffffffffffffffffffffffffffffff166001828154811061046157610460611756565b5b9060005260206000200160006101000a81548173ffffffffffffffffffffffffffffffffffffffff021916908373ffffffffffffffffffffffffffffffffffffffff16021790555060018054806104bb576104ba6117e8565b5b6001900381819060005260206000200160006101000a81549073ffffffffffffffffffffffffffffffffffffffff02191690559055610508565b808061050090611817565b915050610381565b503373ffffffffffffffffffffffffffffffffffffffff167f4bc56f1321288dfb5b416cb3a7fd188723979f9e866c91d88eccf7fca039d03960405160405180910390a2565b60008060008373ffffffffffffffffffffffffffffffffffffffff1673ffffffffffffffffffffffffffffffffffffffff16815260200190815260200160002060020160009054906101000a900460ff169050919050565b6000803373ffffffffffffffffffffffffffffffffffffffff1673ffffffffffffffffffffffffffffffffffffffff16815260200190815260200160002060020160009054906101000a900460ff1615610635576040517f08c379a000000000000000000000000000000000000000000000000000000000815260040161062c906118ab565b60405180910390fd5b6000825111610679576040517f08c379a000000000000000000000000000000000000000000000000000000000815260040161067090611917565b60405180910390fd5b6040518060600160405280838152602001828152602001600115158152506000803373ffffffffffffffffffffffffffffffffffffffff1673ffffffffffffffffffffffffffffffffffffffff16815260200190815260200160002060008201518160000190816106ea9190611684565b5060208201518160010190816107009190611684565b5060408201518160020160006101000a81548160ff0219169083151502179055509050506001339080600181540180825580915050600190039060005260206000200160009091909190916101000a81548173ffffffffffffffffffffffffffffffffffffffff021916908373ffffffffffffffffffffffffffffffffffffffff1602179055503373ffffffffffffffffffffffffffffffffffffffff167f92822564bab8864c3a47b34e8d23fbce5c46234eb5da261f94087b995ac0f33b83836040516107cf929190611937565b60405180910390a25050565b600181815481106107eb57600080fd5b906000526020600020016000915054906101000a900473ffffffffffffffffffffffffffffffffffffffff1681565b600060205280600052604060002060009150905080600001805461083d906114a7565b80601f0160208091040260200160405190810160405280929190818152602001828054610869906114a7565b80156108b65780601f1061088b576101008083540402835291602001916108b6565b820191906000526020600020905b81548152906001019060200180831161089957829003601f168201915b5050505050908060010180546108cb906114a7565b80601f01602080910402602001604051908101604052809291908181526020018280546108f7906114a7565b80156109445780601f1061091957610100808354040283529160200191610944565b820191906000526020600020905b81548152906001019060200180831161092757829003601f168201915b5050505050908060020160009054906101000a900460ff16905083565b6000600180549050905090565b6060806000806000808673ffffffffffffffffffffffffffffffffffffffff1673ffffffffffffffffffffffffffffffffffffffff1681526020019081526020016000206040518060600160405290816000820180546109cd906114a7565b80601f01602080910402602001604051908101604052809291908181526020018280546109f9906114a7565b8015610a465780601f10610a1b57610100808354040283529160200191610a46565b820191906000526020600020905b815481529060010190602001808311610a2957829003601f168201915b50505050508152602001600182018054610a5f906114a7565b80601f0160208091040260200160405190810160405280929190818152602001828054610a8b906114a7565b8015610ad85780601f10610aad57610100808354040283529160200191610ad8565b820191906000526020600020905b815481529060010190602001808311610abb57829003601f168201915b505050505081526020016002820160009054906101000a900460ff1615151515815250509050806000015181602001518260400151935093509350509193909250565b60606001805480602002602001604051908101604052809291908181526020018280548015610b9f57602002820191906000526020600020905b8160009054906101000a900473ffffffffffffffffffffffffffffffffffffffff1673ffffffffffffffffffffffffffffffffffffffff1681526020019060010190808311610b55575b5050505050905090565b6000808273ffffffffffffffffffffffffffffffffffffffff1673ffffffffffffffffffffffffffffffffffffffff16815260200190815260200160002060020160009054906101000a900460ff16610c37576040517f08c379a0000000000000000000000000000000000000000000000000000000008152600401610c2e90611458565b60405180910390fd5b60008060008373ffffffffffffffffffffffffffffffffffffffff1673ffffffffffffffffffffffffffffffffffffffff16815260200190815260200160002060020160006101000a81548160ff021916908315150217905550604051806020016040528060008152506000808373ffffffffffffffffffffffffffffffffffffffff1673ffffffffffffffffffffffffffffffffffffffff1681526020019081526020016000206000019081610cee9190611684565b50604051806020016040528060008152506000808373ffffffffffffffffffffffffffffffffffffffff1673ffffffffffffffffffffffffffffffffffffffff1681526020019081526020016000206001019081610d4c9190611684565b5060005b600180549050811015610ed7578173ffffffffffffffffffffffffffffffffffffffff1660018281548110610d8857610d87611756565b5b9060005260206000200160009054906101000a900473ffffffffffffffffffffffffffffffffffffffff1673ffffffffffffffffffffffffffffffffffffffff1603610ec4576001808080549050610de091906117b4565b81548110610df157610df0611756565b5b9060005260206000200160009054906101000a900473ffffffffffffffffffffffffffffffffffffffff1660018281548110610e3057610e2f611756565b5b9060005260206000200160006101000a81548173ffffffffffffffffffffffffffffffffffffffff021916908373ffffffffffffffffffffffffffffffffffffffff1602179055506001805480610e8a57610e896117e8565b5b6001900381819060005260206000200160006101000a81549073ffffffffffffffffffffffffffffffffffffffff02191690559055610ed7565b8080610ecf90611817565b915050610d50565b508073ffffffffffffffffffffffffffffffffffffffff167f4bc56f1321288dfb5b416cb3a7fd188723979f9e866c91d88eccf7fca039d03960405160405180910390a250565b6000604051905090565b600080fd5b600080fd5b600073ffffffffffffffffffffffffffffffffffffffff82169050919050565b6000610f5d82610f32565b9050919050565b610f6d81610f52565b8114610f7857600080fd5b50565b600081359050610f8a81610f64565b92915050565b600060208284031215610fa657610fa5610f28565b5b6000610fb484828501610f7b565b91505092915050565b60008115159050919050565b610fd281610fbd565b82525050565b6000602082019050610fed6000830184610fc9565b92915050565b600080fd5b600080fd5b6000601f19601f8301169050919050565b7f4e487b7100000000000000000000000000000000000000000000000000000000600052604160045260246000fd5b61104682610ffd565b810181811067ffffffffffffffff821117156110655761106461100e565b5b80604052505050565b6000611078610f1e565b9050611084828261103d565b919050565b600067ffffffffffffffff8211156110a4576110a361100e565b5b6110ad82610ffd565b9050602081019050919050565b82818337600083830152505050565b60006110dc6110d784611089565b61106e565b9050828152602081018484840111156110f8576110f7610ff8565b5b6111038482856110ba565b509392505050565b600082601f8301126111205761111f610ff3565b5b81356111308482602086016110c9565b91505092915050565b600080604083850312156111505761114f610f28565b5b600083013567ffffffffffffffff81111561116e5761116d610f2d565b5b61117a8582860161110b565b925050602083013567ffffffffffffffff81111561119b5761119a610f2d565b5b6111a78582860161110b565b9150509250929050565b6000819050919050565b6111c4816111b1565b81146111cf57600080fd5b50565b6000813590506111e1816111bb565b92915050565b6000602082840312156111fd576111fc610f28565b5b600061120b848285016111d2565b91505092915050565b61121d81610f52565b82525050565b60006020820190506112386000830184611214565b92915050565b600081519050919050565b600082825260208201905092915050565b60005b8381101561127857808201518184015260208101905061125d565b60008484015250505050565b600061128f8261123e565b6112998185611249565b93506112a981856020860161125a565b6112b281610ffd565b840191505092915050565b600060608201905081810360008301526112d78186611284565b905081810360208301526112eb8185611284565b90506112fa6040830184610fc9565b949350505050565b61130b816111b1565b82525050565b60006020820190506113266000830184611302565b92915050565b600081519050919050565b600082825260208201905092915050565b6000819050602082019050919050565b61136181610f52565b82525050565b60006113738383611358565b60208301905092915050565b6000602082019050919050565b60006113978261132c565b6113a18185611337565b93506113ac83611348565b8060005b838110156113dd5781516113c48882611367565b97506113cf8361137f565b9250506001810190506113b0565b5085935050505092915050565b60006020820190508181036000830152611404818461138c565b905092915050565b7f55736572206973206e6f74207265676973746572656400000000000000000000600082015250565b6000611442601683611249565b915061144d8261140c565b602082019050919050565b6000602082019050818103600083015261147181611435565b9050919050565b7f4e487b7100000000000000000000000000000000000000000000000000000000600052602260045260246000fd5b600060028204905060018216806114bf57607f821691505b6020821081036114d2576114d1611478565b5b50919050565b60008190508160005260206000209050919050565b60006020601f8301049050919050565b600082821b905092915050565b60006008830261153a7fffffffffffffffffffffffffffffffffffffffffffffffffffffffffffffffff826114fd565b61154486836114fd565b95508019841693508086168417925050509392505050565b6000819050919050565b600061158161157c611577846111b1565b61155c565b6111b1565b9050919050565b6000819050919050565b61159b83611566565b6115af6115a782611588565b84845461150a565b825550505050565b600090565b6115c46115b7565b6115cf818484611592565b505050565b5b818110156115f3576115e86000826115bc565b6001810190506115d5565b5050565b601f82111561163857611609816114d8565b611612846114ed565b81016020851015611621578190505b61163561162d856114ed565b8301826115d4565b50505b505050565b600082821c905092915050565b600061165b6000198460080261163d565b1980831691505092915050565b6000611674838361164a565b9150826002028217905092915050565b61168d8261123e565b67ffffffffffffffff8111156116a6576116a561100e565b5b6116b082546114a7565b6116bb8282856115f7565b600060209050601f8311600181146116ee57600084156116dc578287015190505b6116e68582611668565b86555061174e565b601f1984166116fc866114d8565b60005b82811015611724578489015182556001820191506020850194506020810190506116ff565b86831015611741578489015161173d601f89168261164a565b8355505b6001600288020188555050505b505050505050565b7f4e487b7100000000000000000000000000000000000000000000000000000000600052603260045260246000fd5b7f4e487b7100000000000000000000000000000000000000000000000000000000600052601160045260246000fd5b60006117bf826111b1565b91506117ca836111b1565b92508282039050818111156117e2576117e1611785565b5b92915050565b7f4e487b7100000000000000000000000000000000000000000000000000000000600052603160045260246000fd5b6000611822826111b1565b91507fffffffffffffffffffffffffffffffffffffffffffffffffffffffffffffffff820361185457611853611785565b5b600182019050919050565b7f5573657220697320616c72656164792072656769737465726564000000000000600082015250565b6000611895601a83611249565b91506118a08261185f565b602082019050919050565b600060208201905081810360008301526118c481611888565b9050919050565b7f454e53206e616d652063616e6e6f7420626520656d7074790000000000000000600082015250565b6000611901601883611249565b915061190c826118cb565b602082019050919050565b60006020820190508181036000830152611930816118f4565b9050919050565b600060408201905081810360008301526119518185611284565b905081810360208301526119658184611284565b9050939250505056fea2646970667358221220e87738e36acd0a2675445e6d1860bdcfd115c02779d6d856c440bc14f21cafc764736f6c63430008140033",
  "linkReferences": {},
  "deployedLinkReferences": {}
}